{
  "contractName": "DayLimit",
  "abi": [
    {
      "constant": true,
      "inputs": [],
      "name": "dailyLimit",
      "outputs": [
        {
          "name": "",
          "type": "uint256"
        }
      ],
      "payable": false,
      "stateMutability": "view",
      "type": "function"
    },
    {
      "constant": true,
      "inputs": [],
      "name": "lastDay",
      "outputs": [
        {
          "name": "",
          "type": "uint256"
        }
      ],
      "payable": false,
      "stateMutability": "view",
      "type": "function"
    },
    {
      "constant": true,
      "inputs": [],
      "name": "spentToday",
      "outputs": [
        {
          "name": "",
          "type": "uint256"
        }
      ],
      "payable": false,
      "stateMutability": "view",
      "type": "function"
    },
    {
      "inputs": [
        {
          "name": "_limit",
          "type": "uint256"
        }
      ],
      "payable": false,
      "stateMutability": "nonpayable",
      "type": "constructor"
    }
  ],
  "bytecode": "0x6060604052341561000f57600080fd5b60405160208061019b833981016040528080519060200190919050508060008190555061004d610059640100000000026100dc176401000000009004565b6002819055505061006f565b6000620151804281151561006957fe5b04905090565b61011d8061007e6000396000f3006060604052600436106053576000357c0100000000000000000000000000000000000000000000000000000000900463ffffffff16806367eeba0c1460585780636b0c932d14607e578063f059cf2b1460a4575b600080fd5b3415606257600080fd5b606860ca565b6040518082815260200191505060405180910390f35b3415608857600080fd5b608e60d0565b6040518082815260200191505060405180910390f35b341560ae57600080fd5b60b460d6565b6040518082815260200191505060405180910390f35b60005481565b60025481565b60015481565b6000620151804281151560eb57fe5b049050905600a165627a7a72305820d8196369faf3e9831ba978e24f9b79fd89d10a3c16e4ddbbe2707f690552404e0029",
  "source": "pragma solidity ^0.4.11;\n\n/**\n * @title DayLimit\n * @dev Base contract that enables methods to be protected by placing a linear limit (specifiable)\n * on a particular resource per calendar day. Is multiowned to allow the limit to be altered.\n */\ncontract DayLimit {\n\n    uint256 public dailyLimit;\n    uint256 public spentToday;\n    uint256 public lastDay;\n\n    /**\n     * @dev Constructor that sets the passed value as a dailyLimit.\n     * @param _limit uint256 to represent the daily limit.\n     */\n    function DayLimit(uint256 _limit) {\n        dailyLimit = _limit;\n        lastDay = today();\n    }\n\n    /**\n     * @dev sets the daily limit. Does not alter the amount already spent today.\n     * @param _newLimit uint256 to represent the new limit.\n     */\n    function _setDailyLimit(uint256 _newLimit) internal {\n        dailyLimit = _newLimit;\n    }\n\n    /**\n     * @dev Resets the amount already spent today.\n     */\n    function _resetSpentToday() internal {\n        spentToday = 0;\n    }\n\n    /**\n     * @dev Checks to see if there is enough resource to spend today. If true, the resource may be expended.\n     * @param _value uint256 representing the amount of resource to spend.\n     * @return A boolean that is True if the resource was spended and false otherwise.\n     */\n    function underLimit(uint256 _value) internal returns (bool) {\n        // reset the spend limit if we're on a different day to last time.\n        if (today() > lastDay) {\n            spentToday = 0;\n            lastDay = today();\n        }\n        // check to see if there's enough left - if so, subtract and return true.\n        // overflow protection                    // dailyLimit check\n        if (spentToday + _value >= spentToday && spentToday + _value <= dailyLimit) {\n            spentToday += _value;\n            return true;\n        }\n        return false;\n    }\n\n    /**\n     * @dev Private function to determine today's index\n     * @return uint256 of today's index.\n     */\n    function today() private constant returns (uint256) {\n        return now / 1 days;\n    }\n\n    /**\n     * @dev Simple modifier for daily limit.\n     */\n    modifier limitedDaily(uint256 _value) {\n        require(underLimit(_value));\n        _;\n    }\n}",
  "sourcePath": "/Users/WilliamHuang/Developer/Job-Development/BitNation/multi-sig-wallet/contracts/DayLimit.sol",
  "compiler": {
    "name": "solc",
    "version": "0.4.18+commit.9cf6e910.Emscripten.clang"
  },
  "schemaVersion": "1.0.1",
  "updatedAt": "2017-12-13T14:03:57.303Z"
}